{
  "_format": "hh-sol-artifact-1",
  "contractName": "NateProtocol",
  "sourceName": "contracts/NateProtocol.sol",
  "abi": [
    {
      "inputs": [
        {
          "internalType": "address",
          "name": "_admin",
          "type": "address"
        }
      ],
      "stateMutability": "nonpayable",
      "type": "constructor"
    },
    {
      "inputs": [],
      "name": "AccessControlBadConfirmation",
      "type": "error"
    },
    {
      "inputs": [
        {
          "internalType": "address",
          "name": "account",
          "type": "address"
        },
        {
          "internalType": "bytes32",
          "name": "neededRole",
          "type": "bytes32"
        }
      ],
      "name": "AccessControlUnauthorizedAccount",
      "type": "error"
    },
    {
      "inputs": [
        {
          "internalType": "address",
          "name": "spender",
          "type": "address"
        },
        {
          "internalType": "uint256",
          "name": "allowance",
          "type": "uint256"
        },
        {
          "internalType": "uint256",
          "name": "needed",
          "type": "uint256"
        }
      ],
      "name": "ERC20InsufficientAllowance",
      "type": "error"
    },
    {
      "inputs": [
        {
          "internalType": "address",
          "name": "sender",
          "type": "address"
        },
        {
          "internalType": "uint256",
          "name": "balance",
          "type": "uint256"
        },
        {
          "internalType": "uint256",
          "name": "needed",
          "type": "uint256"
        }
      ],
      "name": "ERC20InsufficientBalance",
      "type": "error"
    },
    {
      "inputs": [
        {
          "internalType": "address",
          "name": "approver",
          "type": "address"
        }
      ],
      "name": "ERC20InvalidApprover",
      "type": "error"
    },
    {
      "inputs": [
        {
          "internalType": "address",
          "name": "receiver",
          "type": "address"
        }
      ],
      "name": "ERC20InvalidReceiver",
      "type": "error"
    },
    {
      "inputs": [
        {
          "internalType": "address",
          "name": "sender",
          "type": "address"
        }
      ],
      "name": "ERC20InvalidSender",
      "type": "error"
    },
    {
      "inputs": [
        {
          "internalType": "address",
          "name": "spender",
          "type": "address"
        }
      ],
      "name": "ERC20InvalidSpender",
      "type": "error"
    },
    {
      "inputs": [],
      "name": "ReentrancyGuardReentrantCall",
      "type": "error"
    },
    {
      "anonymous": false,
      "inputs": [
        {
          "indexed": true,
          "internalType": "address",
          "name": "owner",
          "type": "address"
        },
        {
          "indexed": true,
          "internalType": "address",
          "name": "spender",
          "type": "address"
        },
        {
          "indexed": false,
          "internalType": "uint256",
          "name": "value",
          "type": "uint256"
        }
      ],
      "name": "Approval",
      "type": "event"
    },
    {
      "anonymous": false,
      "inputs": [
        {
          "indexed": true,
          "internalType": "uint256",
          "name": "id",
          "type": "uint256"
        },
        {
          "indexed": true,
          "internalType": "address",
          "name": "executor",
          "type": "address"
        }
      ],
      "name": "OpportunityClaimed",
      "type": "event"
    },
    {
      "anonymous": false,
      "inputs": [
        {
          "indexed": true,
          "internalType": "uint256",
          "name": "id",
          "type": "uint256"
        },
        {
          "indexed": false,
          "internalType": "uint256",
          "name": "actualValue",
          "type": "uint256"
        }
      ],
      "name": "OpportunityExecuted",
      "type": "event"
    },
    {
      "anonymous": false,
      "inputs": [
        {
          "indexed": true,
          "internalType": "uint256",
          "name": "id",
          "type": "uint256"
        },
        {
          "indexed": false,
          "internalType": "string",
          "name": "category",
          "type": "string"
        },
        {
          "indexed": false,
          "internalType": "string",
          "name": "description",
          "type": "string"
        },
        {
          "indexed": false,
          "internalType": "uint256",
          "name": "estimatedValue",
          "type": "uint256"
        }
      ],
      "name": "OpportunityLogged",
      "type": "event"
    },
    {
      "anonymous": false,
      "inputs": [
        {
          "indexed": false,
          "internalType": "uint256",
          "name": "amount",
          "type": "uint256"
        }
      ],
      "name": "RevenueForwarded",
      "type": "event"
    },
    {
      "anonymous": false,
      "inputs": [
        {
          "indexed": true,
          "internalType": "bytes32",
          "name": "role",
          "type": "bytes32"
        },
        {
          "indexed": true,
          "internalType": "bytes32",
          "name": "previousAdminRole",
          "type": "bytes32"
        },
        {
          "indexed": true,
          "internalType": "bytes32",
          "name": "newAdminRole",
          "type": "bytes32"
        }
      ],
      "name": "RoleAdminChanged",
      "type": "event"
    },
    {
      "anonymous": false,
      "inputs": [
        {
          "indexed": true,
          "internalType": "bytes32",
          "name": "role",
          "type": "bytes32"
        },
        {
          "indexed": true,
          "internalType": "address",
          "name": "account",
          "type": "address"
        },
        {
          "indexed": true,
          "internalType": "address",
          "name": "sender",
          "type": "address"
        }
      ],
      "name": "RoleGranted",
      "type": "event"
    },
    {
      "anonymous": false,
      "inputs": [
        {
          "indexed": true,
          "internalType": "bytes32",
          "name": "role",
          "type": "bytes32"
        },
        {
          "indexed": true,
          "internalType": "address",
          "name": "account",
          "type": "address"
        },
        {
          "indexed": true,
          "internalType": "address",
          "name": "sender",
          "type": "address"
        }
      ],
      "name": "RoleRevoked",
      "type": "event"
    },
    {
      "anonymous": false,
      "inputs": [
        {
          "indexed": true,
          "internalType": "address",
          "name": "user",
          "type": "address"
        },
        {
          "indexed": false,
          "internalType": "uint256",
          "name": "amount",
          "type": "uint256"
        }
      ],
      "name": "Staked",
      "type": "event"
    },
    {
      "anonymous": false,
      "inputs": [
        {
          "indexed": true,
          "internalType": "address",
          "name": "from",
          "type": "address"
        },
        {
          "indexed": true,
          "internalType": "address",
          "name": "to",
          "type": "address"
        },
        {
          "indexed": false,
          "internalType": "uint256",
          "name": "value",
          "type": "uint256"
        }
      ],
      "name": "Transfer",
      "type": "event"
    },
    {
      "anonymous": false,
      "inputs": [
        {
          "indexed": true,
          "internalType": "address",
          "name": "user",
          "type": "address"
        },
        {
          "indexed": false,
          "internalType": "uint256",
          "name": "amount",
          "type": "uint256"
        }
      ],
      "name": "Unstaked",
      "type": "event"
    },
    {
      "inputs": [],
      "name": "ADMIN_ROLE",
      "outputs": [
        {
          "internalType": "bytes32",
          "name": "",
          "type": "bytes32"
        }
      ],
      "stateMutability": "view",
      "type": "function"
    },
    {
      "inputs": [],
      "name": "DEFAULT_ADMIN_ROLE",
      "outputs": [
        {
          "internalType": "bytes32",
          "name": "",
          "type": "bytes32"
        }
      ],
      "stateMutability": "view",
      "type": "function"
    },
    {
      "inputs": [],
      "name": "MINTER_ROLE",
      "outputs": [
        {
          "internalType": "bytes32",
          "name": "",
          "type": "bytes32"
        }
      ],
      "stateMutability": "view",
      "type": "function"
    },
    {
      "inputs": [
        {
          "internalType": "address",
          "name": "owner",
          "type": "address"
        },
        {
          "internalType": "address",
          "name": "spender",
          "type": "address"
        }
      ],
      "name": "allowance",
      "outputs": [
        {
          "internalType": "uint256",
          "name": "",
          "type": "uint256"
        }
      ],
      "stateMutability": "view",
      "type": "function"
    },
    {
      "inputs": [
        {
          "internalType": "address",
          "name": "spender",
          "type": "address"
        },
        {
          "internalType": "uint256",
          "name": "value",
          "type": "uint256"
        }
      ],
      "name": "approve",
      "outputs": [
        {
          "internalType": "bool",
          "name": "",
          "type": "bool"
        }
      ],
      "stateMutability": "nonpayable",
      "type": "function"
    },
    {
      "inputs": [
        {
          "internalType": "address",
          "name": "account",
          "type": "address"
        }
      ],
      "name": "balanceOf",
      "outputs": [
        {
          "internalType": "uint256",
          "name": "",
          "type": "uint256"
        }
      ],
      "stateMutability": "view",
      "type": "function"
    },
    {
      "inputs": [
        {
          "internalType": "uint256",
          "name": "value",
          "type": "uint256"
        }
      ],
      "name": "burn",
      "outputs": [],
      "stateMutability": "nonpayable",
      "type": "function"
    },
    {
      "inputs": [
        {
          "internalType": "address",
          "name": "from",
          "type": "address"
        },
        {
          "internalType": "uint256",
          "name": "amount",
          "type": "uint256"
        }
      ],
      "name": "burn",
      "outputs": [],
      "stateMutability": "nonpayable",
      "type": "function"
    },
    {
      "inputs": [
        {
          "internalType": "address",
          "name": "account",
          "type": "address"
        },
        {
          "internalType": "uint256",
          "name": "value",
          "type": "uint256"
        }
      ],
      "name": "burnFrom",
      "outputs": [],
      "stateMutability": "nonpayable",
      "type": "function"
    },
    {
      "inputs": [
        {
          "internalType": "uint256",
          "name": "_id",
          "type": "uint256"
        }
      ],
      "name": "claimOpportunity",
      "outputs": [],
      "stateMutability": "nonpayable",
      "type": "function"
    },
    {
      "inputs": [],
      "name": "decimals",
      "outputs": [
        {
          "internalType": "uint8",
          "name": "",
          "type": "uint8"
        }
      ],
      "stateMutability": "view",
      "type": "function"
    },
    {
      "inputs": [
        {
          "internalType": "address",
          "name": "",
          "type": "address"
        },
        {
          "internalType": "uint256",
          "name": "",
          "type": "uint256"
        }
      ],
      "name": "executorOpportunities",
      "outputs": [
        {
          "internalType": "uint256",
          "name": "",
          "type": "uint256"
        }
      ],
      "stateMutability": "view",
      "type": "function"
    },
    {
      "inputs": [],
      "name": "getActiveOpportunities",
      "outputs": [
        {
          "internalType": "uint256[]",
          "name": "",
          "type": "uint256[]"
        }
      ],
      "stateMutability": "view",
      "type": "function"
    },
    {
      "inputs": [
        {
          "internalType": "bytes32",
          "name": "role",
          "type": "bytes32"
        }
      ],
      "name": "getRoleAdmin",
      "outputs": [
        {
          "internalType": "bytes32",
          "name": "",
          "type": "bytes32"
        }
      ],
      "stateMutability": "view",
      "type": "function"
    },
    {
      "inputs": [
        {
          "internalType": "address",
          "name": "_user",
          "type": "address"
        }
      ],
      "name": "getVotingPower",
      "outputs": [
        {
          "internalType": "uint256",
          "name": "",
          "type": "uint256"
        }
      ],
      "stateMutability": "view",
      "type": "function"
    },
    {
      "inputs": [
        {
          "internalType": "bytes32",
          "name": "role",
          "type": "bytes32"
        },
        {
          "internalType": "address",
          "name": "account",
          "type": "address"
        }
      ],
      "name": "grantRole",
      "outputs": [],
      "stateMutability": "nonpayable",
      "type": "function"
    },
    {
      "inputs": [
        {
          "internalType": "bytes32",
          "name": "role",
          "type": "bytes32"
        },
        {
          "internalType": "address",
          "name": "account",
          "type": "address"
        }
      ],
      "name": "hasRole",
      "outputs": [
        {
          "internalType": "bool",
          "name": "",
          "type": "bool"
        }
      ],
      "stateMutability": "view",
      "type": "function"
    },
    {
      "inputs": [
        {
          "internalType": "string",
          "name": "_category",
          "type": "string"
        },
        {
          "internalType": "string",
          "name": "_description",
          "type": "string"
        },
        {
          "internalType": "uint256",
          "name": "_estimatedValue",
          "type": "uint256"
        }
      ],
      "name": "logOpportunity",
      "outputs": [],
      "stateMutability": "nonpayable",
      "type": "function"
    },
    {
      "inputs": [
        {
          "internalType": "uint256",
          "name": "_id",
          "type": "uint256"
        },
        {
          "internalType": "uint256",
          "name": "_actualValue",
          "type": "uint256"
        }
      ],
      "name": "markExecuted",
      "outputs": [],
      "stateMutability": "nonpayable",
      "type": "function"
    },
    {
      "inputs": [
        {
          "internalType": "address",
          "name": "to",
          "type": "address"
        },
        {
          "internalType": "uint256",
          "name": "amount",
          "type": "uint256"
        }
      ],
      "name": "mint",
      "outputs": [],
      "stateMutability": "nonpayable",
      "type": "function"
    },
    {
      "inputs": [],
      "name": "name",
      "outputs": [
        {
          "internalType": "string",
          "name": "",
          "type": "string"
        }
      ],
      "stateMutability": "view",
      "type": "function"
    },
    {
      "inputs": [
        {
          "internalType": "uint256",
          "name": "",
          "type": "uint256"
        }
      ],
      "name": "opportunities",
      "outputs": [
        {
          "internalType": "uint256",
          "name": "id",
          "type": "uint256"
        },
        {
          "internalType": "string",
          "name": "description",
          "type": "string"
        },
        {
          "internalType": "string",
          "name": "category",
          "type": "string"
        },
        {
          "internalType": "uint256",
          "name": "estimatedValue",
          "type": "uint256"
        },
        {
          "internalType": "enum NateProtocol.OpportunityStatus",
          "name": "status",
          "type": "uint8"
        },
        {
          "internalType": "address",
          "name": "executor",
          "type": "address"
        },
        {
          "internalType": "uint256",
          "name": "createdAt",
          "type": "uint256"
        },
        {
          "internalType": "uint256",
          "name": "claimedAt",
          "type": "uint256"
        }
      ],
      "stateMutability": "view",
      "type": "function"
    },
    {
      "inputs": [],
      "name": "opportunityCount",
      "outputs": [
        {
          "internalType": "uint256",
          "name": "",
          "type": "uint256"
        }
      ],
      "stateMutability": "view",
      "type": "function"
    },
    {
      "inputs": [
        {
          "internalType": "bytes32",
          "name": "role",
          "type": "bytes32"
        },
        {
          "internalType": "address",
          "name": "callerConfirmation",
          "type": "address"
        }
      ],
      "name": "renounceRole",
      "outputs": [],
      "stateMutability": "nonpayable",
      "type": "function"
    },
    {
      "inputs": [
        {
          "internalType": "bytes32",
          "name": "role",
          "type": "bytes32"
        },
        {
          "internalType": "address",
          "name": "account",
          "type": "address"
        }
      ],
      "name": "revokeRole",
      "outputs": [],
      "stateMutability": "nonpayable",
      "type": "function"
    },
    {
      "inputs": [
        {
          "internalType": "address",
          "name": "_engine",
          "type": "address"
        }
      ],
      "name": "setStabilityEngine",
      "outputs": [],
      "stateMutability": "nonpayable",
      "type": "function"
    },
    {
      "inputs": [],
      "name": "stabilityEngine",
      "outputs": [
        {
          "internalType": "address",
          "name": "",
          "type": "address"
        }
      ],
      "stateMutability": "view",
      "type": "function"
    },
    {
      "inputs": [
        {
          "internalType": "uint256",
          "name": "_amount",
          "type": "uint256"
        }
      ],
      "name": "stake",
      "outputs": [],
      "stateMutability": "nonpayable",
      "type": "function"
    },
    {
      "inputs": [
        {
          "internalType": "address",
          "name": "",
          "type": "address"
        }
      ],
      "name": "stakeTimestamp",
      "outputs": [
        {
          "internalType": "uint256",
          "name": "",
          "type": "uint256"
        }
      ],
      "stateMutability": "view",
      "type": "function"
    },
    {
      "inputs": [
        {
          "internalType": "address",
          "name": "",
          "type": "address"
        }
      ],
      "name": "stakedBalance",
      "outputs": [
        {
          "internalType": "uint256",
          "name": "",
          "type": "uint256"
        }
      ],
      "stateMutability": "view",
      "type": "function"
    },
    {
      "inputs": [
        {
          "internalType": "bytes4",
          "name": "interfaceId",
          "type": "bytes4"
        }
      ],
      "name": "supportsInterface",
      "outputs": [
        {
          "internalType": "bool",
          "name": "",
          "type": "bool"
        }
      ],
      "stateMutability": "view",
      "type": "function"
    },
    {
      "inputs": [],
      "name": "symbol",
      "outputs": [
        {
          "internalType": "string",
          "name": "",
          "type": "string"
        }
      ],
      "stateMutability": "view",
      "type": "function"
    },
    {
      "inputs": [],
      "name": "totalStaked",
      "outputs": [
        {
          "internalType": "uint256",
          "name": "",
          "type": "uint256"
        }
      ],
      "stateMutability": "view",
      "type": "function"
    },
    {
      "inputs": [],
      "name": "totalSupply",
      "outputs": [
        {
          "internalType": "uint256",
          "name": "",
          "type": "uint256"
        }
      ],
      "stateMutability": "view",
      "type": "function"
    },
    {
      "inputs": [
        {
          "internalType": "address",
          "name": "to",
          "type": "address"
        },
        {
          "internalType": "uint256",
          "name": "value",
          "type": "uint256"
        }
      ],
      "name": "transfer",
      "outputs": [
        {
          "internalType": "bool",
          "name": "",
          "type": "bool"
        }
      ],
      "stateMutability": "nonpayable",
      "type": "function"
    },
    {
      "inputs": [
        {
          "internalType": "address",
          "name": "from",
          "type": "address"
        },
        {
          "internalType": "address",
          "name": "to",
          "type": "address"
        },
        {
          "internalType": "uint256",
          "name": "value",
          "type": "uint256"
        }
      ],
      "name": "transferFrom",
      "outputs": [
        {
          "internalType": "bool",
          "name": "",
          "type": "bool"
        }
      ],
      "stateMutability": "nonpayable",
      "type": "function"
    },
    {
      "inputs": [
        {
          "internalType": "uint256",
          "name": "_amount",
          "type": "uint256"
        }
      ],
      "name": "unstake",
      "outputs": [],
      "stateMutability": "nonpayable",
      "type": "function"
    },
    {
      "stateMutability": "payable",
      "type": "receive"
    }
  ],
  "bytecode": "0x60806040523480156200001157600080fd5b506040516200237b3803806200237b8339810160408190526200003491620001ef565b6040518060400160405280601781526020017f4e61746520457865637574696f6e2050726f746f636f6c000000000000000000815250604051806040016040528060048152602001634e41544560e01b8152508160039081620000989190620002c6565b506004620000a78282620002c6565b50506001600655506001600160a01b038116620000fa5760405162461bcd60e51b815260206004820152600d60248201526c24b73b30b634b21030b236b4b760991b604482015260640160405180910390fd5b620001076000826200013c565b50620001347fa49807205ce4d355092ef5a8a18f56e8913cf4a201fbe287825b095693c21775826200013c565b505062000392565b60008281526005602090815260408083206001600160a01b038516845290915281205460ff16620001e55760008381526005602090815260408083206001600160a01b03861684529091529020805460ff191660011790556200019c3390565b6001600160a01b0316826001600160a01b0316847f2f8788117e7eff1d82e926ec794901d17c78024a50270940304540a733656f0d60405160405180910390a4506001620001e9565b5060005b92915050565b6000602082840312156200020257600080fd5b81516001600160a01b03811681146200021a57600080fd5b9392505050565b634e487b7160e01b600052604160045260246000fd5b600181811c908216806200024c57607f821691505b6020821081036200026d57634e487b7160e01b600052602260045260246000fd5b50919050565b601f821115620002c157600081815260208120601f850160051c810160208610156200029c5750805b601f850160051c820191505b81811015620002bd57828155600101620002a8565b5050505b505050565b81516001600160401b03811115620002e257620002e262000221565b620002fa81620002f3845462000237565b8462000273565b602080601f831160018114620003325760008415620003195750858301515b600019600386901b1c1916600185901b178555620002bd565b600085815260208120601f198616915b82811015620003635788860151825594840194600190910190840162000342565b5085821015620003825787850151600019600388901b60f8161c191681555b5050505050600190811b01905550565b611fd980620003a26000396000f3fe60806040526004361061021e5760003560e01c806379cc679011610123578063a694fc3a116100ab578063d53913931161006f578063d53913931461077a578063d547741f1461079c578063dd62ed3e146107bc578063f3fab31114610802578063f7cff8731461082457600080fd5b8063a694fc3a146106c6578063a9059cbb146106e6578063acd6c98f14610706578063bb4d44361461073a578063d46525c41461075a57600080fd5b806395d89b41116100f257806395d89b411461063c578063969b8f9e146106515780639dc29fac14610671578063a09953e314610691578063a217fddf146106b157600080fd5b806379cc6790146105c65780637ac5bbdd146105e6578063817b1cd21461060657806391d148541461061c57600080fd5b806336568abe116101a6578063602172671161017557806360217267146104f457806362c3c4ec14610521578063702590771461054157806370a082311461056e57806375b238fc146105a457600080fd5b806336568abe1461045c57806340c10f191461047c57806342966c681461049c57806344abb74a146104bc57600080fd5b806323b872dd116101ed57806323b872dd146103b0578063248a9ca3146103d05780632e17de78146104005780632f2ff15d14610420578063313ce5671461044057600080fd5b806301ffc9a71461031a57806306fdde031461034f578063095ea7b31461037157806318160ddd1461039157600080fd5b366103155760003411801561023d57506007546001600160a01b031615155b15610313576007546040516000916001600160a01b03169034908381818185875af1925050503d806000811461028f576040519150601f19603f3d011682016040523d82523d6000602084013e610294565b606091505b50509050806102de5760405162461bcd60e51b8152602060048201526011602482015270119bdc9dd85c991a5b99c819985a5b1959607a1b60448201526064015b60405180910390fd5b6040513481527f6b0e30d4894741a70028e9140f7d91f776ef4c49e4dd92fe1eb414421940d8c19060200160405180910390a1505b005b600080fd5b34801561032657600080fd5b5061033a6103353660046119ab565b61083a565b60405190151581526020015b60405180910390f35b34801561035b57600080fd5b50610364610871565b6040516103469190611a22565b34801561037d57600080fd5b5061033a61038c366004611a51565b610903565b34801561039d57600080fd5b506002545b604051908152602001610346565b3480156103bc57600080fd5b5061033a6103cb366004611a7b565b61091b565b3480156103dc57600080fd5b506103a26103eb366004611ab7565b60009081526005602052604090206001015490565b34801561040c57600080fd5b5061031361041b366004611ab7565b61093f565b34801561042c57600080fd5b5061031361043b366004611ad0565b610a6b565b34801561044c57600080fd5b5060405160128152602001610346565b34801561046857600080fd5b50610313610477366004611ad0565b610a96565b34801561048857600080fd5b50610313610497366004611a51565b610ace565b3480156104a857600080fd5b506103136104b7366004611ab7565b610af0565b3480156104c857600080fd5b506007546104dc906001600160a01b031681565b6040516001600160a01b039091168152602001610346565b34801561050057600080fd5b506103a261050f366004611afc565b600b6020526000908152604090205481565b34801561052d57600080fd5b5061031361053c366004611ab7565b610afa565b34801561054d57600080fd5b506103a261055c366004611afc565b600c6020526000908152604090205481565b34801561057a57600080fd5b506103a2610589366004611afc565b6001600160a01b031660009081526020819052604090205490565b3480156105b057600080fd5b506103a2600080516020611f8483398151915281565b3480156105d257600080fd5b506103136105e1366004611a51565b610c96565b3480156105f257600080fd5b50610313610601366004611b17565b610caf565b34801561061257600080fd5b506103a2600d5481565b34801561062857600080fd5b5061033a610637366004611ad0565b610d75565b34801561064857600080fd5b50610364610da0565b34801561065d57600080fd5b506103a261066c366004611a51565b610daf565b34801561067d57600080fd5b5061031361068c366004611a51565b610de0565b34801561069d57600080fd5b506103136106ac366004611b82565b610e02565b3480156106bd57600080fd5b506103a2600081565b3480156106d257600080fd5b506103136106e1366004611ab7565b610fdb565b3480156106f257600080fd5b5061033a610701366004611a51565b611104565b34801561071257600080fd5b50610726610721366004611ab7565b611112565b604051610346989796959493929190611c0c565b34801561074657600080fd5b506103a2610755366004611afc565b611272565b34801561076657600080fd5b50610313610775366004611afc565b611313565b34801561078657600080fd5b506103a2600080516020611f6483398151915281565b3480156107a857600080fd5b506103136107b7366004611ad0565b6113a5565b3480156107c857600080fd5b506103a26107d7366004611c90565b6001600160a01b03918216600090815260016020908152604080832093909416825291909152205490565b34801561080e57600080fd5b506108176113ca565b6040516103469190611cba565b34801561083057600080fd5b506103a260085481565b60006001600160e01b03198216637965db0b60e01b148061086b57506301ffc9a760e01b6001600160e01b03198316145b92915050565b60606003805461088090611cfe565b80601f01602080910402602001604051908101604052809291908181526020018280546108ac90611cfe565b80156108f95780601f106108ce576101008083540402835291602001916108f9565b820191906000526020600020905b8154815290600101906020018083116108dc57829003601f168201915b5050505050905090565b6000336109118185856114ed565b5060019392505050565b6000336109298582856114fa565b610934858585611573565b506001949350505050565b6109476115d2565b6000811161098a5760405162461bcd60e51b815260206004820152601060248201526f043616e6e6f7420756e7374616b6520360841b60448201526064016102d5565b336000908152600b60205260409020548111156109df5760405162461bcd60e51b8152602060048201526013602482015272125b9cdd59999a58da595b9d081cdd185ad959606a1b60448201526064016102d5565b336000908152600b6020526040812080548392906109fe908490611d4e565b9250508190555080600d6000828254610a179190611d4e565b90915550610a289050303383611573565b60405181815233907f0f5bb82176feb1b5e747e28471aa92156a04d9f3ab9f45f28e2d704232b93f75906020015b60405180910390a2610a686001600655565b50565b600082815260056020526040902060010154610a86816115fc565b610a908383611606565b50505050565b6001600160a01b0381163314610abf5760405163334bd91960e11b815260040160405180910390fd5b610ac9828261169a565b505050565b600080516020611f64833981519152610ae6816115fc565b610ac98383611707565b610a68338261173d565b610b026115d2565b336000908152602081905260408120541180610b2c5750336000908152600b602052604090205415155b610b695760405162461bcd60e51b815260206004820152600e60248201526d4d75737420686f6c64204e41544560901b60448201526064016102d5565b60008181526009602052604081208054909103610bc05760405162461bcd60e51b815260206004820152601560248201527413dc1c1bdc9d1d5b9a5d1e481b9bdd08199bdd5b99605a1b60448201526064016102d5565b6000600482015460ff166003811115610bdb57610bdb611bf6565b14610c185760405162461bcd60e51b815260206004820152600d60248201526c4e6f7420617661696c61626c6560981b60448201526064016102d5565b60048101805460016001600160a81b03199091163361010081029190911782179092554260068401556000828152600a60209081526040808320805494850181558352908220909201859055905184917fef57b6909d18547c895fbe2d2a6c451d3ac2a81ec07de8c025fb6ec50e01fd6691a350610a686001600655565b610ca18233836114fa565b610cab828261173d565b5050565b600080516020611f84833981519152610cc7816115fc565b60008381526009602052604090206001600482015460ff166003811115610cf057610cf0611bf6565b14610d2b5760405162461bcd60e51b815260206004820152600b60248201526a139bdd0818db185a5b595960aa1b60448201526064016102d5565b60048101805460ff1916600217905560405183815284907fba4008461598254b954cd987aa92a08d9a2fa76063b0cdbd6ea98d8efa4fa77f9060200160405180910390a250505050565b60009182526005602090815260408084206001600160a01b0393909316845291905290205460ff1690565b60606004805461088090611cfe565b600a6020528160005260406000208181548110610dcb57600080fd5b90600052602060002001600091509150505481565b600080516020611f64833981519152610df8816115fc565b610ac9838361173d565b600080516020611f84833981519152610e1a816115fc565b60088054906000610e2a83611d61565b9190505550604051806101000160405280600854815260200185858080601f016020809104026020016040519081016040528093929190818152602001838380828437600092019190915250505090825250604080516020601f8a01819004810282018101909252888152918101919089908990819084018382808284376000920182905250938552505050602080830186905260408084018390526060840183905242608085015260a090930182905260085482526009815291902082518155908201516001820190610efe9082611dde565b5060408201516002820190610f139082611dde565b506060820151816003015560808201518160040160006101000a81548160ff02191690836003811115610f4857610f48611bf6565b021790555060a08201516004820180546001600160a01b0390921661010002610100600160a81b031990921691909117905560c0820151600582015560e0909101516006909101556008546040517f644650327dd82d426501fd8e795518b1745ad65282c1c1f90c3084c69b46e69690610fcb9089908990899089908990611ec7565b60405180910390a2505050505050565b610fe36115d2565b600081116110245760405162461bcd60e51b815260206004820152600e60248201526d043616e6e6f74207374616b6520360941b60448201526064016102d5565b3360009081526020819052604090205481111561107a5760405162461bcd60e51b8152602060048201526014602482015273496e73756666696369656e742062616c616e636560601b60448201526064016102d5565b611085333083611573565b336000908152600b6020526040812080548392906110a4908490611f01565b9091555050336000908152600c60205260408120429055600d80548392906110cd908490611f01565b909155505060405181815233907f9e71bc8eea02a63969f509818f2dafb9254532904319f9dbda79b67bd34a5f3d90602001610a56565b600033610911818585611573565b6009602052600090815260409020805460018201805491929161113490611cfe565b80601f016020809104026020016040519081016040528092919081815260200182805461116090611cfe565b80156111ad5780601f10611182576101008083540402835291602001916111ad565b820191906000526020600020905b81548152906001019060200180831161119057829003601f168201915b5050505050908060020180546111c290611cfe565b80601f01602080910402602001604051908101604052809291908181526020018280546111ee90611cfe565b801561123b5780601f106112105761010080835404028352916020019161123b565b820191906000526020600020905b81548152906001019060200180831161121e57829003601f168201915b505050506003830154600484015460058501546006909501549394919360ff821693506101009091046001600160a01b0316919088565b6001600160a01b0381166000908152600b602052604081205480820361129b5750600092915050565b6001600160a01b0383166000908152600c60205260408120546112be9042611d4e565b905060006112cf62278d0083611f14565b6112da90600a611f36565b6112e5906064611f01565b905060c88111156112f4575060c85b60646113008285611f36565b61130a9190611f14565b95945050505050565b600080516020611f8483398151915261132b816115fc565b6001600160a01b0382166113725760405162461bcd60e51b815260206004820152600e60248201526d496e76616c696420656e67696e6560901b60448201526064016102d5565b600780546001600160a01b0319166001600160a01b038416179055610ac9600080516020611f6483398151915283611606565b6000828152600560205260409020600101546113c0816115fc565b610a90838361169a565b6060600060015b60085481116114255760008181526009602052604081206004015460ff16600381111561140057611400611bf6565b03611413578161140f81611d61565b9250505b8061141d81611d61565b9150506113d1565b5060008167ffffffffffffffff81111561144157611441611d7a565b60405190808252806020026020018201604052801561146a578160200160208202803683370190505b509050600060015b60085481116114e45760008181526009602052604081206004015460ff1660038111156114a1576114a1611bf6565b036114d257808383815181106114b9576114b9611f4d565b6020908102919091010152816114ce81611d61565b9250505b806114dc81611d61565b915050611472565b50909392505050565b610ac98383836001611773565b6001600160a01b03838116600090815260016020908152604080832093861683529290522054600019811015610a90578181101561156457604051637dc7a0d960e11b81526001600160a01b038416600482015260248101829052604481018390526064016102d5565b610a9084848484036000611773565b6001600160a01b03831661159d57604051634b637e8f60e11b8152600060048201526024016102d5565b6001600160a01b0382166115c75760405163ec442f0560e01b8152600060048201526024016102d5565b610ac9838383611848565b6002600654036115f557604051633ee5aeb560e01b815260040160405180910390fd5b6002600655565b610a688133611972565b60006116128383610d75565b6116925760008381526005602090815260408083206001600160a01b03861684529091529020805460ff1916600117905561164a3390565b6001600160a01b0316826001600160a01b0316847f2f8788117e7eff1d82e926ec794901d17c78024a50270940304540a733656f0d60405160405180910390a450600161086b565b50600061086b565b60006116a68383610d75565b156116925760008381526005602090815260408083206001600160a01b0386168085529252808320805460ff1916905551339286917ff6391f5c32d9c69d2a47ea670b442974b53935d1edc7fd64eb21e047a839171b9190a450600161086b565b6001600160a01b0382166117315760405163ec442f0560e01b8152600060048201526024016102d5565b610cab60008383611848565b6001600160a01b03821661176757604051634b637e8f60e11b8152600060048201526024016102d5565b610cab82600083611848565b6001600160a01b03841661179d5760405163e602df0560e01b8152600060048201526024016102d5565b6001600160a01b0383166117c757604051634a1406b160e11b8152600060048201526024016102d5565b6001600160a01b0380851660009081526001602090815260408083209387168352929052208290558015610a9057826001600160a01b0316846001600160a01b03167f8c5be1e5ebec7d5bd14f71427d1e84f3dd0314c0f7b2291e5b200ac8c7c3b9258460405161183a91815260200190565b60405180910390a350505050565b6001600160a01b0383166118735780600260008282546118689190611f01565b909155506118e59050565b6001600160a01b038316600090815260208190526040902054818110156118c65760405163391434e360e21b81526001600160a01b038516600482015260248101829052604481018390526064016102d5565b6001600160a01b03841660009081526020819052604090209082900390555b6001600160a01b03821661190157600280548290039055611920565b6001600160a01b03821660009081526020819052604090208054820190555b816001600160a01b0316836001600160a01b03167fddf252ad1be2c89b69c2b068fc378daa952ba7f163c4a11628f55a4df523b3ef8360405161196591815260200190565b60405180910390a3505050565b61197c8282610d75565b610cab5760405163e2517d3f60e01b81526001600160a01b0382166004820152602481018390526044016102d5565b6000602082840312156119bd57600080fd5b81356001600160e01b0319811681146119d557600080fd5b9392505050565b6000815180845260005b81811015611a02576020818501810151868301820152016119e6565b506000602082860101526020601f19601f83011685010191505092915050565b6020815260006119d560208301846119dc565b80356001600160a01b0381168114611a4c57600080fd5b919050565b60008060408385031215611a6457600080fd5b611a6d83611a35565b946020939093013593505050565b600080600060608486031215611a9057600080fd5b611a9984611a35565b9250611aa760208501611a35565b9150604084013590509250925092565b600060208284031215611ac957600080fd5b5035919050565b60008060408385031215611ae357600080fd5b82359150611af360208401611a35565b90509250929050565b600060208284031215611b0e57600080fd5b6119d582611a35565b60008060408385031215611b2a57600080fd5b50508035926020909101359150565b60008083601f840112611b4b57600080fd5b50813567ffffffffffffffff811115611b6357600080fd5b602083019150836020828501011115611b7b57600080fd5b9250929050565b600080600080600060608688031215611b9a57600080fd5b853567ffffffffffffffff80821115611bb257600080fd5b611bbe89838a01611b39565b90975095506020880135915080821115611bd757600080fd5b50611be488828901611b39565b96999598509660400135949350505050565b634e487b7160e01b600052602160045260246000fd5b60006101008a8352806020840152611c268184018b6119dc565b90508281036040840152611c3a818a6119dc565b91505086606083015260048610611c6157634e487b7160e01b600052602160045260246000fd5b60808201959095526001600160a01b039390931660a084015260c083019190915260e090910152949350505050565b60008060408385031215611ca357600080fd5b611cac83611a35565b9150611af360208401611a35565b6020808252825182820181905260009190848201906040850190845b81811015611cf257835183529284019291840191600101611cd6565b50909695505050505050565b600181811c90821680611d1257607f821691505b602082108103611d3257634e487b7160e01b600052602260045260246000fd5b50919050565b634e487b7160e01b600052601160045260246000fd5b8181038181111561086b5761086b611d38565b600060018201611d7357611d73611d38565b5060010190565b634e487b7160e01b600052604160045260246000fd5b601f821115610ac957600081815260208120601f850160051c81016020861015611db75750805b601f850160051c820191505b81811015611dd657828155600101611dc3565b505050505050565b815167ffffffffffffffff811115611df857611df8611d7a565b611e0c81611e068454611cfe565b84611d90565b602080601f831160018114611e415760008415611e295750858301515b600019600386901b1c1916600185901b178555611dd6565b600085815260208120601f198616915b82811015611e7057888601518255948401946001909101908401611e51565b5085821015611e8e5787850151600019600388901b60f8161c191681555b5050505050600190811b01905550565b81835281816020850137506000828201602090810191909152601f909101601f19169091010190565b606081526000611edb606083018789611e9e565b8281036020840152611eee818688611e9e565b9150508260408301529695505050505050565b8082018082111561086b5761086b611d38565b600082611f3157634e487b7160e01b600052601260045260246000fd5b500490565b808202811582820484141761086b5761086b611d38565b634e487b7160e01b600052603260045260246000fdfe9f2df0fed2c77648de5860a4cc508cd0818c85b8b8a1ab4ceeef8d981c8956a6a49807205ce4d355092ef5a8a18f56e8913cf4a201fbe287825b095693c21775a264697066735822122028ff8d9b0589a1ccffd33f2f61320c02c7781ba43427f7f41334d614bf40434564736f6c63430008140033",
  "linkReferences": {},
  "deployedLinkReferences": {}
}