{
  "_format": "hh-sol-artifact-1",
  "contractName": "StabilityEngine",
  "sourceName": "contracts/StabilityEngine.sol",
  "abi": [
    {
      "inputs": [
        {
          "internalType": "address",
          "name": "_token",
          "type": "address"
        },
        {
          "internalType": "address",
          "name": "_oracle",
          "type": "address"
        }
      ],
      "stateMutability": "nonpayable",
      "type": "constructor"
    },
    {
      "inputs": [
        {
          "internalType": "address",
          "name": "owner",
          "type": "address"
        }
      ],
      "name": "OwnableInvalidOwner",
      "type": "error"
    },
    {
      "inputs": [
        {
          "internalType": "address",
          "name": "account",
          "type": "address"
        }
      ],
      "name": "OwnableUnauthorizedAccount",
      "type": "error"
    },
    {
      "inputs": [],
      "name": "ReentrancyGuardReentrantCall",
      "type": "error"
    },
    {
      "anonymous": false,
      "inputs": [
        {
          "indexed": false,
          "internalType": "uint256",
          "name": "newRatio",
          "type": "uint256"
        }
      ],
      "name": "CollateralRatioUpdated",
      "type": "event"
    },
    {
      "anonymous": false,
      "inputs": [
        {
          "indexed": true,
          "internalType": "address",
          "name": "to",
          "type": "address"
        },
        {
          "indexed": false,
          "internalType": "uint256",
          "name": "amount",
          "type": "uint256"
        },
        {
          "indexed": false,
          "internalType": "uint256",
          "name": "newSupply",
          "type": "uint256"
        }
      ],
      "name": "Minted",
      "type": "event"
    },
    {
      "anonymous": false,
      "inputs": [
        {
          "indexed": true,
          "internalType": "address",
          "name": "previousOwner",
          "type": "address"
        },
        {
          "indexed": true,
          "internalType": "address",
          "name": "newOwner",
          "type": "address"
        }
      ],
      "name": "OwnershipTransferred",
      "type": "event"
    },
    {
      "anonymous": false,
      "inputs": [
        {
          "indexed": true,
          "internalType": "address",
          "name": "user",
          "type": "address"
        },
        {
          "indexed": false,
          "internalType": "uint256",
          "name": "amountNate",
          "type": "uint256"
        },
        {
          "indexed": false,
          "internalType": "uint256",
          "name": "ethRefund",
          "type": "uint256"
        }
      ],
      "name": "Redeemed",
      "type": "event"
    },
    {
      "anonymous": false,
      "inputs": [
        {
          "indexed": true,
          "internalType": "address",
          "name": "from",
          "type": "address"
        },
        {
          "indexed": false,
          "internalType": "uint256",
          "name": "amount",
          "type": "uint256"
        }
      ],
      "name": "TreasuryDeposit",
      "type": "event"
    },
    {
      "inputs": [],
      "name": "MIN_COLLATERAL_RATIO",
      "outputs": [
        {
          "internalType": "uint256",
          "name": "",
          "type": "uint256"
        }
      ],
      "stateMutability": "view",
      "type": "function"
    },
    {
      "inputs": [],
      "name": "PRICE_PRECISION",
      "outputs": [
        {
          "internalType": "uint256",
          "name": "",
          "type": "uint256"
        }
      ],
      "stateMutability": "view",
      "type": "function"
    },
    {
      "inputs": [],
      "name": "accumulatedEthFees",
      "outputs": [
        {
          "internalType": "uint256",
          "name": "",
          "type": "uint256"
        }
      ],
      "stateMutability": "view",
      "type": "function"
    },
    {
      "inputs": [],
      "name": "ethPriceUSD",
      "outputs": [
        {
          "internalType": "uint256",
          "name": "",
          "type": "uint256"
        }
      ],
      "stateMutability": "view",
      "type": "function"
    },
    {
      "inputs": [],
      "name": "getSystemStatus",
      "outputs": [
        {
          "internalType": "uint256",
          "name": "totalSupply",
          "type": "uint256"
        },
        {
          "internalType": "uint256",
          "name": "totalValueUSD",
          "type": "uint256"
        },
        {
          "internalType": "uint256",
          "name": "collateralRatio",
          "type": "uint256"
        },
        {
          "internalType": "uint256",
          "name": "liquidEth",
          "type": "uint256"
        }
      ],
      "stateMutability": "view",
      "type": "function"
    },
    {
      "inputs": [],
      "name": "lifeOracle",
      "outputs": [
        {
          "internalType": "contract ILifeOracle",
          "name": "",
          "type": "address"
        }
      ],
      "stateMutability": "view",
      "type": "function"
    },
    {
      "inputs": [
        {
          "internalType": "uint256",
          "name": "_amount",
          "type": "uint256"
        }
      ],
      "name": "mint",
      "outputs": [],
      "stateMutability": "nonpayable",
      "type": "function"
    },
    {
      "inputs": [],
      "name": "mintFeeBps",
      "outputs": [
        {
          "internalType": "uint256",
          "name": "",
          "type": "uint256"
        }
      ],
      "stateMutability": "view",
      "type": "function"
    },
    {
      "inputs": [],
      "name": "nateToken",
      "outputs": [
        {
          "internalType": "contract INateToken",
          "name": "",
          "type": "address"
        }
      ],
      "stateMutability": "view",
      "type": "function"
    },
    {
      "inputs": [],
      "name": "owner",
      "outputs": [
        {
          "internalType": "address",
          "name": "",
          "type": "address"
        }
      ],
      "stateMutability": "view",
      "type": "function"
    },
    {
      "inputs": [
        {
          "internalType": "uint256",
          "name": "_amountNate",
          "type": "uint256"
        }
      ],
      "name": "redeem",
      "outputs": [],
      "stateMutability": "nonpayable",
      "type": "function"
    },
    {
      "inputs": [],
      "name": "redeemFeeBps",
      "outputs": [
        {
          "internalType": "uint256",
          "name": "",
          "type": "uint256"
        }
      ],
      "stateMutability": "view",
      "type": "function"
    },
    {
      "inputs": [],
      "name": "renounceOwnership",
      "outputs": [],
      "stateMutability": "nonpayable",
      "type": "function"
    },
    {
      "inputs": [
        {
          "internalType": "uint256",
          "name": "_mintFeeBps",
          "type": "uint256"
        },
        {
          "internalType": "uint256",
          "name": "_redeemFeeBps",
          "type": "uint256"
        }
      ],
      "name": "setFees",
      "outputs": [],
      "stateMutability": "nonpayable",
      "type": "function"
    },
    {
      "inputs": [
        {
          "internalType": "address",
          "name": "_oracle",
          "type": "address"
        }
      ],
      "name": "setOracle",
      "outputs": [],
      "stateMutability": "nonpayable",
      "type": "function"
    },
    {
      "inputs": [
        {
          "internalType": "address",
          "name": "newOwner",
          "type": "address"
        }
      ],
      "name": "transferOwnership",
      "outputs": [],
      "stateMutability": "nonpayable",
      "type": "function"
    },
    {
      "inputs": [
        {
          "internalType": "address",
          "name": "_to",
          "type": "address"
        }
      ],
      "name": "withdrawEthFees",
      "outputs": [],
      "stateMutability": "nonpayable",
      "type": "function"
    },
    {
      "inputs": [
        {
          "internalType": "address",
          "name": "_to",
          "type": "address"
        }
      ],
      "name": "withdrawNateFees",
      "outputs": [],
      "stateMutability": "nonpayable",
      "type": "function"
    },
    {
      "stateMutability": "payable",
      "type": "receive"
    }
  ],
  "bytecode": "0x60806040526032600255603260035534801561001a57600080fd5b506040516110073803806110078339810160408190526100399161010a565b338061005f57604051631e4fbdf760e01b81526000600482015260240160405180910390fd5b6100688161009e565b5060018055600580546001600160a01b039384166001600160a01b0319918216179091556006805492909316911617905561013d565b600080546001600160a01b038381166001600160a01b0319831681178455604051919092169283917f8be0079c531659141344cd1fd0a4f28419497f9722a3daafe3b4186f6b6457e09190a35050565b80516001600160a01b038116811461010557600080fd5b919050565b6000806040838503121561011d57600080fd5b610126836100ee565b9150610134602084016100ee565b90509250929050565b610ebb8061014c6000396000f3fe60806040526004361061010d5760003560e01c80638da5cb5b11610095578063a0712d6811610064578063a0712d68146102f2578063d0ea9bb214610312578063d73d56bb14610332578063db006a751461034b578063f2fde38b1461036b57600080fd5b80638da5cb5b146102865780638f56df3a146102a457806395082d25146102c457806397c8bcc1146102dc57600080fd5b8063439d8147116100dc578063439d8147146101f157806350c1d19d14610207578063715018a61461023c5780637a9fffb7146102515780637adbf9731461026657600080fd5b806309f6442c1461014e5780630b78f9c014610177578063193d0b791461019957806319e6b31b146101d157600080fd5b366101495760405134815233907fe3407208b14fa025330ca187030f118a1c0cdb604aba93ba45c862e6095aee279060200160405180910390a2005b600080fd5b34801561015a57600080fd5b5061016460035481565b6040519081526020015b60405180910390f35b34801561018357600080fd5b50610197610192366004610d64565b61038b565b005b3480156101a557600080fd5b506005546101b9906001600160a01b031681565b6040516001600160a01b03909116815260200161016e565b3480156101dd57600080fd5b506006546101b9906001600160a01b031681565b3480156101fd57600080fd5b5061016460045481565b34801561021357600080fd5b5061021c6103f1565b60408051948552602085019390935291830152606082015260800161016e565b34801561024857600080fd5b506101976104ac565b34801561025d57600080fd5b50610164609681565b34801561027257600080fd5b50610197610281366004610d86565b6104c0565b34801561029257600080fd5b506000546001600160a01b03166101b9565b3480156102b057600080fd5b506101976102bf366004610d86565b6104ea565b3480156102d057600080fd5b506101646305f5e10081565b3480156102e857600080fd5b5061016460025481565b3480156102fe57600080fd5b5061019761030d366004610db6565b6105c8565b34801561031e57600080fd5b5061019761032d366004610d86565b610801565b34801561033e57600080fd5b50610164643a3529440081565b34801561035757600080fd5b50610197610366366004610db6565b61092e565b34801561037757600080fd5b50610197610386366004610d86565b610bd1565b610393610c0c565b6103e882111580156103a757506103e88111155b6103e65760405162461bcd60e51b815260206004820152600b60248201526a4d6178206665652031302560a81b60448201526064015b60405180910390fd5b600291909155600355565b600080600080600560009054906101000a90046001600160a01b03166001600160a01b03166318160ddd6040518163ffffffff1660e01b8152600401602060405180830381865afa15801561044a573d6000803e3d6000fd5b505050506040513d601f19601f8201168201806040525081019061046e9190610dcf565b9350610478610c39565b925047905083156104a0578361048f846064610dfe565b6104999190610e1b565b91506104a6565b60001991505b90919293565b6104b4610c0c565b6104be6000610cea565b565b6104c8610c0c565b600680546001600160a01b0319166001600160a01b0392909216919091179055565b6104f2610c0c565b6004548061052c5760405162461bcd60e51b81526020600482015260076024820152664e6f206665657360c81b60448201526064016103dd565b600060048190556040516001600160a01b0384169083908381818185875af1925050503d806000811461057b576040519150601f19603f3d011682016040523d82523d6000602084013e610580565b606091505b50509050806105c35760405162461bcd60e51b815260206004820152600f60248201526e151c985b9cd9995c8819985a5b1959608a1b60448201526064016103dd565b505050565b6105d0610c0c565b600554604080516318160ddd60e01b815290516000926001600160a01b0316916318160ddd9160048083019260209291908290030181865afa15801561061a573d6000803e3d6000fd5b505050506040513d601f19601f8201168201806040525081019061063e9190610dcf565b9050600061064c8383610e3d565b90506000610658610c39565b90506064610667609684610dfe565b6106719190610e1b565b8110156106c05760405162461bcd60e51b815260206004820181905260248201527f556e646572636f6c6c61746572616c697a6564206d696e7420617474656d707460448201526064016103dd565b6000612710600254866106d39190610dfe565b6106dd9190610e1b565b905060006106eb8287610e50565b6005546040516340c10f1960e01b8152336004820152602481018390529192506001600160a01b0316906340c10f1990604401600060405180830381600087803b15801561073857600080fd5b505af115801561074c573d6000803e3d6000fd5b5050505060008211156107be576005546040516340c10f1960e01b8152306004820152602481018490526001600160a01b03909116906340c10f1990604401600060405180830381600087803b1580156107a557600080fd5b505af11580156107b9573d6000803e3d6000fd5b505050505b604080518781526020810186905233917f25b428dfde728ccfaddad7e29e4ac23c24ed7fd1a6e3e3f91894a9a073f5dfff910160405180910390a2505050505050565b610809610c0c565b6005546040516370a0823160e01b81523060048201526000916001600160a01b0316906370a0823190602401602060405180830381865afa158015610852573d6000803e3d6000fd5b505050506040513d601f19601f820116820180604052508101906108769190610dcf565b9050600081116108b75760405162461bcd60e51b815260206004820152600c60248201526b4e6f204e415445206665657360a01b60448201526064016103dd565b60055460405163a9059cbb60e01b81526001600160a01b038481166004830152602482018490529091169063a9059cbb906044016020604051808303816000875af115801561090a573d6000803e3d6000fd5b505050506040513d601f19601f820116820180604052508101906105c39190610e63565b610936610d3a565b6005546040516370a0823160e01b815233600482015282916001600160a01b0316906370a0823190602401602060405180830381865afa15801561097e573d6000803e3d6000fd5b505050506040513d601f19601f820116820180604052508101906109a29190610dcf565b10156109e55760405162461bcd60e51b8152602060048201526012602482015271496e73756666696369656e742066756e647360701b60448201526064016103dd565b6000643a352944006109fb6305f5e10084610dfe565b610a059190610e1b565b9050600061271060035483610a1a9190610dfe565b610a249190610e1b565b90506000610a328284610e50565b90508160046000828254610a469190610e3d565b909155505047831115610a945760405162461bcd60e51b81526020600482015260166024820152755472656173757279206c69717569642063726973697360501b60448201526064016103dd565b600554604051632770a7eb60e21b8152336004820152602481018690526001600160a01b0390911690639dc29fac90604401600060405180830381600087803b158015610ae057600080fd5b505af1158015610af4573d6000803e3d6000fd5b50506040516000925033915083908381818185875af1925050503d8060008114610b3a576040519150601f19603f3d011682016040523d82523d6000602084013e610b3f565b606091505b5050905080610b865760405162461bcd60e51b8152602060048201526013602482015272115512081d1c985b9cd9995c8819985a5b1959606a1b60448201526064016103dd565b604080518681526020810184905233917ff3a670cd3af7d64b488926880889d08a8585a138ff455227af6737339a1ec262910160405180910390a250505050610bce60018055565b50565b610bd9610c0c565b6001600160a01b038116610c0357604051631e4fbdf760e01b8152600060048201526024016103dd565b610bce81610cea565b6000546001600160a01b031633146104be5760405163118cdaa760e01b81523360048201526024016103dd565b600080600660009054906101000a90046001600160a01b03166001600160a01b031663caa648b46040518163ffffffff1660e01b8152600401602060405180830381865afa158015610c8f573d6000803e3d6000fd5b505050506040513d601f19601f82011682018060405250810190610cb39190610dcf565b90504760006305f5e100610ccc643a3529440084610dfe565b610cd69190610e1b565b9050610ce28184610e3d565b935050505090565b600080546001600160a01b038381166001600160a01b0319831681178455604051919092169283917f8be0079c531659141344cd1fd0a4f28419497f9722a3daafe3b4186f6b6457e09190a35050565b600260015403610d5d57604051633ee5aeb560e01b815260040160405180910390fd5b6002600155565b60008060408385031215610d7757600080fd5b50508035926020909101359150565b600060208284031215610d9857600080fd5b81356001600160a01b0381168114610daf57600080fd5b9392505050565b600060208284031215610dc857600080fd5b5035919050565b600060208284031215610de157600080fd5b5051919050565b634e487b7160e01b600052601160045260246000fd5b8082028115828204841417610e1557610e15610de8565b92915050565b600082610e3857634e487b7160e01b600052601260045260246000fd5b500490565b80820180821115610e1557610e15610de8565b81810381811115610e1557610e15610de8565b600060208284031215610e7557600080fd5b81518015158114610daf57600080fdfea2646970667358221220c5a8aa44ea7a3f3f3c8e545b00bbaa06e60f00049591ae7e5f44799b255a6ecd64736f6c63430008140033",
  "linkReferences": {},
  "deployedLinkReferences": {}
}