{
  "_format": "hh-sol-artifact-1",
  "contractName": "TaskMarket",
  "sourceName": "contracts/TaskMarket.sol",
  "abi": [
    {
      "inputs": [
        {
          "internalType": "address",
          "name": "_token",
          "type": "address"
        },
        {
          "internalType": "address",
          "name": "_oracle",
          "type": "address"
        }
      ],
      "stateMutability": "nonpayable",
      "type": "constructor"
    },
    {
      "inputs": [
        {
          "internalType": "address",
          "name": "owner",
          "type": "address"
        }
      ],
      "name": "OwnableInvalidOwner",
      "type": "error"
    },
    {
      "inputs": [
        {
          "internalType": "address",
          "name": "account",
          "type": "address"
        }
      ],
      "name": "OwnableUnauthorizedAccount",
      "type": "error"
    },
    {
      "inputs": [],
      "name": "ReentrancyGuardReentrantCall",
      "type": "error"
    },
    {
      "anonymous": false,
      "inputs": [
        {
          "indexed": true,
          "internalType": "uint256",
          "name": "id",
          "type": "uint256"
        },
        {
          "indexed": true,
          "internalType": "address",
          "name": "user",
          "type": "address"
        },
        {
          "indexed": false,
          "internalType": "bool",
          "name": "supportYes",
          "type": "bool"
        },
        {
          "indexed": false,
          "internalType": "uint256",
          "name": "amount",
          "type": "uint256"
        }
      ],
      "name": "BetPlaced",
      "type": "event"
    },
    {
      "anonymous": false,
      "inputs": [
        {
          "indexed": true,
          "internalType": "address",
          "name": "previousOwner",
          "type": "address"
        },
        {
          "indexed": true,
          "internalType": "address",
          "name": "newOwner",
          "type": "address"
        }
      ],
      "name": "OwnershipTransferred",
      "type": "event"
    },
    {
      "anonymous": false,
      "inputs": [
        {
          "indexed": true,
          "internalType": "uint256",
          "name": "id",
          "type": "uint256"
        },
        {
          "indexed": true,
          "internalType": "address",
          "name": "user",
          "type": "address"
        },
        {
          "indexed": false,
          "internalType": "uint256",
          "name": "amount",
          "type": "uint256"
        }
      ],
      "name": "RewardClaimed",
      "type": "event"
    },
    {
      "anonymous": false,
      "inputs": [
        {
          "indexed": true,
          "internalType": "uint256",
          "name": "id",
          "type": "uint256"
        },
        {
          "indexed": false,
          "internalType": "string",
          "name": "description",
          "type": "string"
        },
        {
          "indexed": false,
          "internalType": "enum TaskMarket.TimeHorizon",
          "name": "horizon",
          "type": "uint8"
        },
        {
          "indexed": false,
          "internalType": "uint256",
          "name": "deadline",
          "type": "uint256"
        }
      ],
      "name": "TaskCreated",
      "type": "event"
    },
    {
      "anonymous": false,
      "inputs": [
        {
          "indexed": true,
          "internalType": "uint256",
          "name": "id",
          "type": "uint256"
        },
        {
          "indexed": false,
          "internalType": "bool",
          "name": "outcome",
          "type": "bool"
        },
        {
          "indexed": false,
          "internalType": "uint256",
          "name": "totalPool",
          "type": "uint256"
        }
      ],
      "name": "TaskResolved",
      "type": "event"
    },
    {
      "inputs": [],
      "name": "accumulatedFees",
      "outputs": [
        {
          "internalType": "uint256",
          "name": "",
          "type": "uint256"
        }
      ],
      "stateMutability": "view",
      "type": "function"
    },
    {
      "inputs": [
        {
          "internalType": "uint256",
          "name": "_taskId",
          "type": "uint256"
        },
        {
          "internalType": "bool",
          "name": "_supportYes",
          "type": "bool"
        },
        {
          "internalType": "uint256",
          "name": "_amount",
          "type": "uint256"
        }
      ],
      "name": "bet",
      "outputs": [],
      "stateMutability": "nonpayable",
      "type": "function"
    },
    {
      "inputs": [
        {
          "internalType": "uint256",
          "name": "_taskId",
          "type": "uint256"
        }
      ],
      "name": "cancelTask",
      "outputs": [],
      "stateMutability": "nonpayable",
      "type": "function"
    },
    {
      "inputs": [
        {
          "internalType": "uint256",
          "name": "_taskId",
          "type": "uint256"
        }
      ],
      "name": "claimReward",
      "outputs": [],
      "stateMutability": "nonpayable",
      "type": "function"
    },
    {
      "inputs": [
        {
          "internalType": "string",
          "name": "_description",
          "type": "string"
        },
        {
          "internalType": "enum TaskMarket.TimeHorizon",
          "name": "_horizon",
          "type": "uint8"
        },
        {
          "internalType": "uint256",
          "name": "_durationSeconds",
          "type": "uint256"
        }
      ],
      "name": "createTask",
      "outputs": [],
      "stateMutability": "nonpayable",
      "type": "function"
    },
    {
      "inputs": [
        {
          "internalType": "uint256",
          "name": "_taskId",
          "type": "uint256"
        }
      ],
      "name": "getOdds",
      "outputs": [
        {
          "internalType": "uint256",
          "name": "yesPercent",
          "type": "uint256"
        },
        {
          "internalType": "uint256",
          "name": "noPercent",
          "type": "uint256"
        }
      ],
      "stateMutability": "view",
      "type": "function"
    },
    {
      "inputs": [],
      "name": "nateToken",
      "outputs": [
        {
          "internalType": "contract IERC20",
          "name": "",
          "type": "address"
        }
      ],
      "stateMutability": "view",
      "type": "function"
    },
    {
      "inputs": [],
      "name": "oracle",
      "outputs": [
        {
          "internalType": "address",
          "name": "",
          "type": "address"
        }
      ],
      "stateMutability": "view",
      "type": "function"
    },
    {
      "inputs": [],
      "name": "owner",
      "outputs": [
        {
          "internalType": "address",
          "name": "",
          "type": "address"
        }
      ],
      "stateMutability": "view",
      "type": "function"
    },
    {
      "inputs": [
        {
          "internalType": "uint256",
          "name": "_taskId",
          "type": "uint256"
        },
        {
          "internalType": "bool",
          "name": "_supportYes",
          "type": "bool"
        },
        {
          "internalType": "uint256",
          "name": "_amount",
          "type": "uint256"
        }
      ],
      "name": "placeBet",
      "outputs": [],
      "stateMutability": "nonpayable",
      "type": "function"
    },
    {
      "inputs": [
        {
          "internalType": "uint256",
          "name": "",
          "type": "uint256"
        },
        {
          "internalType": "address",
          "name": "",
          "type": "address"
        }
      ],
      "name": "positions",
      "outputs": [
        {
          "internalType": "uint256",
          "name": "yesAmount",
          "type": "uint256"
        },
        {
          "internalType": "uint256",
          "name": "noAmount",
          "type": "uint256"
        },
        {
          "internalType": "bool",
          "name": "claimed",
          "type": "bool"
        }
      ],
      "stateMutability": "view",
      "type": "function"
    },
    {
      "inputs": [],
      "name": "protocolFeeBps",
      "outputs": [
        {
          "internalType": "uint256",
          "name": "",
          "type": "uint256"
        }
      ],
      "stateMutability": "view",
      "type": "function"
    },
    {
      "inputs": [],
      "name": "renounceOwnership",
      "outputs": [],
      "stateMutability": "nonpayable",
      "type": "function"
    },
    {
      "inputs": [
        {
          "internalType": "uint256",
          "name": "_taskId",
          "type": "uint256"
        },
        {
          "internalType": "bool",
          "name": "_outcome",
          "type": "bool"
        }
      ],
      "name": "resolveTask",
      "outputs": [],
      "stateMutability": "nonpayable",
      "type": "function"
    },
    {
      "inputs": [
        {
          "internalType": "uint256",
          "name": "_bps",
          "type": "uint256"
        }
      ],
      "name": "setProtocolFee",
      "outputs": [],
      "stateMutability": "nonpayable",
      "type": "function"
    },
    {
      "inputs": [],
      "name": "taskCount",
      "outputs": [
        {
          "internalType": "uint256",
          "name": "",
          "type": "uint256"
        }
      ],
      "stateMutability": "view",
      "type": "function"
    },
    {
      "inputs": [
        {
          "internalType": "uint256",
          "name": "",
          "type": "uint256"
        }
      ],
      "name": "tasks",
      "outputs": [
        {
          "internalType": "uint256",
          "name": "id",
          "type": "uint256"
        },
        {
          "internalType": "string",
          "name": "description",
          "type": "string"
        },
        {
          "internalType": "enum TaskMarket.TimeHorizon",
          "name": "horizon",
          "type": "uint8"
        },
        {
          "internalType": "uint256",
          "name": "deadline",
          "type": "uint256"
        },
        {
          "internalType": "uint256",
          "name": "yesPool",
          "type": "uint256"
        },
        {
          "internalType": "uint256",
          "name": "noPool",
          "type": "uint256"
        },
        {
          "internalType": "enum TaskMarket.TaskStatus",
          "name": "status",
          "type": "uint8"
        },
        {
          "internalType": "bool",
          "name": "outcome",
          "type": "bool"
        },
        {
          "internalType": "uint256",
          "name": "resultPool",
          "type": "uint256"
        }
      ],
      "stateMutability": "view",
      "type": "function"
    },
    {
      "inputs": [
        {
          "internalType": "address",
          "name": "newOwner",
          "type": "address"
        }
      ],
      "name": "transferOwnership",
      "outputs": [],
      "stateMutability": "nonpayable",
      "type": "function"
    },
    {
      "inputs": [
        {
          "internalType": "address",
          "name": "_to",
          "type": "address"
        }
      ],
      "name": "withdrawFees",
      "outputs": [],
      "stateMutability": "nonpayable",
      "type": "function"
    }
  ],
  "bytecode": "0x608060405260c86004553480156200001657600080fd5b50604051620015473803806200154783398101604081905262000039916200010f565b33806200006057604051631e4fbdf760e01b81526000600482015260240160405180910390fd5b6200006b81620000a2565b5060018055600280546001600160a01b039384166001600160a01b0319918216179091556003805492909316911617905562000147565b600080546001600160a01b038381166001600160a01b0319831681178455604051919092169283917f8be0079c531659141344cd1fd0a4f28419497f9722a3daafe3b4186f6b6457e09190a35050565b80516001600160a01b03811681146200010a57600080fd5b919050565b600080604083850312156200012357600080fd5b6200012e83620000f2565b91506200013e60208401620000f2565b90509250929050565b6113f080620001576000396000f3fe608060405234801561001057600080fd5b50600436106101215760003560e01c8063787dce3d116100ad5780638decaec0116100715780638decaec014610193578063ae169a5014610266578063b6cb58a514610279578063e684d71814610282578063f2fde38b146102dc57600080fd5b8063787dce3d146101f45780637dc0d1d0146102075780637eec20a81461021a5780638d9776721461022d5780638da5cb5b1461025557600080fd5b806335659fb8116100f457806335659fb8146101a65780634d9598f0146101bd578063587f5ed7146101d05780635ca72d95146101d9578063715018a6146101ec57600080fd5b8063126c416614610126578063164e68de14610153578063193d0b79146101685780631a38cac614610193575b600080fd5b610139610134366004610f08565b6102ef565b604080519283526020830191909152015b60405180910390f35b610166610161366004610f3d565b610370565b005b60025461017b906001600160a01b031681565b6040516001600160a01b03909116815260200161014a565b6101666101a1366004610f6d565b610444565b6101af60045481565b60405190815260200161014a565b6101666101cb366004610fa5565b61069f565b6101af60055481565b6101666101e7366004611032565b610879565b610166610a02565b610166610202366004610f08565b610a16565b60035461017b906001600160a01b031681565b610166610228366004610f08565b610a63565b61024061023b366004610f08565b610ae1565b60405161014a9998979695949392919061109c565b6000546001600160a01b031661017b565b610166610274366004610f08565b610bbc565b6101af60065481565b6102bf610290366004611138565b600860209081526000928352604080842090915290825290208054600182015460029092015490919060ff1683565b60408051938452602084019290925215159082015260600161014a565b6101666102ea366004610f3d565b610e26565b6000818152600760205260408120600581015460048201548392918391610316919061117a565b90508060000361032d575060009485945092505050565b808260040154606461033f9190611193565b61034991906111aa565b9350808260050154606461035d9190611193565b61036791906111aa565b92505050915091565b610378610e61565b600554806103c35760405162461bcd60e51b81526020600482015260136024820152724e6f206665657320746f20776974686472617760681b60448201526064015b60405180910390fd5b600060055560025460405163a9059cbb60e01b81526001600160a01b038481166004830152602482018490529091169063a9059cbb906044016020604051808303816000875af115801561041b573d6000803e3d6000fd5b505050506040513d601f19601f8201168201806040525081019061043f91906111cc565b505050565b61044c610e8e565b600083815260076020526040812090600682015460ff16600381111561047457610474611062565b146104b35760405162461bcd60e51b815260206004820152600f60248201526e26b0b935b2ba103737ba1037b832b760891b60448201526064016103ba565b806003015442106104f75760405162461bcd60e51b815260206004820152600e60248201526d10995d1d1a5b99c818db1bdcd95960921b60448201526064016103ba565b6000821161053c5760405162461bcd60e51b81526020600482015260126024820152710416d6f756e74206d757374206265203e20360741b60448201526064016103ba565b6002546040516323b872dd60e01b8152336004820152306024820152604481018490526001600160a01b03909116906323b872dd906064016020604051808303816000875af1158015610593573d6000803e3d6000fd5b505050506040513d601f19601f820116820180604052508101906105b791906111cc565b50821561060b57818160040160008282546105d2919061117a565b909155505060008481526008602090815260408083203384529091528120805484929061060090849061117a565b909155506106569050565b8181600501600082825461061f919061117a565b909155505060008481526008602090815260408083203384529091528120600101805484929061065090849061117a565b90915550505b60408051841515815260208101849052339186917f4af71b021e799c62c158bd54636ca8da2fa26115a21a2dc6efe486ec104fd15f910160405180910390a35061043f60018055565b6106a7610e61565b600680549060006106b7836111e9565b9190505550604051806101200160405280600654815260200185858080601f01602080910402602001604051908101604052809392919081815260200183838082843760009201919091525050509082525060200183600281111561071e5761071e611062565b815260200161072d834261117a565b815260200160008152602001600081526020016000600381111561075357610753611062565b81526000602080830182905260409283018290526006548252600781529190208251815590820151600182019061078a90826112a0565b5060408201518160020160006101000a81548160ff021916908360028111156107b5576107b5611062565b0217905550606082015181600301556080820151816004015560a0820151816005015560c08201518160060160006101000a81548160ff0219169083600381111561080257610802611062565b021790555060e08201516006828101805461ff0019166101009315158402179055920151600790910155547fd965cab088be97fb9945c07302eb557dac97b7a824ca9bb0801439100845df9985858561085b864261117a565b60405161086b9493929190611360565b60405180910390a250505050565b6003546001600160a01b031633148061089c57506000546001600160a01b031633145b6108d95760405162461bcd60e51b815260206004820152600e60248201526d139bdd08185d5d1a1bdc9a5e995960921b60448201526064016103ba565b600082815260076020526040812090600682015460ff16600381111561090157610901611062565b146109405760405162461bcd60e51b815260206004820152600f60248201526e26b0b935b2ba103737ba1037b832b760891b60448201526064016103ba565b60068101805460ff19841515610100021661ffff19909116176002179055600581015460048201546000916109749161117a565b90506000612710600454836109899190611193565b61099391906111aa565b905061099f81836113a7565b836007018190555080600560008282546109b9919061117a565b90915550506040805185151581526020810184905286917ff5f8a9adf85545c5a324587d715b2e37e46ffb41a3f515a750c5a356c89ccc82910160405180910390a25050505050565b610a0a610e61565b610a146000610eb8565b565b610a1e610e61565b6103e8811115610a5e5760405162461bcd60e51b815260206004820152600b60248201526a4d6178206665652031302560a81b60448201526064016103ba565b600455565b610a6b610e61565b600081815260076020526040812090600682015460ff166003811115610a9357610a93611062565b14610ad05760405162461bcd60e51b815260206004820152600d60248201526c10d85b9b9bdd0818d85b98d95b609a1b60448201526064016103ba565b600601805460ff1916600317905550565b60076020526000908152604090208054600182018054919291610b0390611218565b80601f0160208091040260200160405190810160405280929190818152602001828054610b2f90611218565b8015610b7c5780601f10610b5157610100808354040283529160200191610b7c565b820191906000526020600020905b815481529060010190602001808311610b5f57829003601f168201915b50505060028401546003850154600486015460058701546006880154600790980154969760ff948516979396509194509281811692610100909204169089565b610bc4610e8e565b60008181526007602052604090206002600682015460ff166003811115610bed57610bed611062565b14610c2d5760405162461bcd60e51b815260206004820152601060248201526f139bdd081c995cdbdb1d9959081e595d60821b60448201526064016103ba565b60008281526008602090815260408083203384529091529020600281015460ff1615610c8d5760405162461bcd60e51b815260206004820152600f60248201526e105b1c9958591e4818db185a5b5959608a1b60448201526064016103ba565b60008083600501548460040154610ca4919061117a565b6006850154909150610100900460ff1615610ce857825415610ce357600484015460078501548454610cd69190611193565b610ce091906111aa565b91505b610d18565b600183015415610d1857836005015484600701548460010154610d0b9190611193565b610d1591906111aa565b91505b60008211610d5b5760405162461bcd60e51b815260206004820152601060248201526f4e6f7468696e6720746f20636c61696d60801b60448201526064016103ba565b6002838101805460ff191660011790555460405163a9059cbb60e01b8152336004820152602481018490526001600160a01b039091169063a9059cbb906044016020604051808303816000875af1158015610dba573d6000803e3d6000fd5b505050506040513d601f19601f82011682018060405250810190610dde91906111cc565b50604051828152339086907f24b5efa61dd1cfc659205a97fb8ed868f3cb8c81922bab2b96423e5de1de2cb79060200160405180910390a350505050610e2360018055565b50565b610e2e610e61565b6001600160a01b038116610e5857604051631e4fbdf760e01b8152600060048201526024016103ba565b610e2381610eb8565b6000546001600160a01b03163314610a145760405163118cdaa760e01b81523360048201526024016103ba565b600260015403610eb157604051633ee5aeb560e01b815260040160405180910390fd5b6002600155565b600080546001600160a01b038381166001600160a01b0319831681178455604051919092169283917f8be0079c531659141344cd1fd0a4f28419497f9722a3daafe3b4186f6b6457e09190a35050565b600060208284031215610f1a57600080fd5b5035919050565b80356001600160a01b0381168114610f3857600080fd5b919050565b600060208284031215610f4f57600080fd5b610f5882610f21565b9392505050565b8015158114610e2357600080fd5b600080600060608486031215610f8257600080fd5b833592506020840135610f9481610f5f565b929592945050506040919091013590565b60008060008060608587031215610fbb57600080fd5b843567ffffffffffffffff80821115610fd357600080fd5b818701915087601f830112610fe757600080fd5b813581811115610ff657600080fd5b88602082850101111561100857600080fd5b602092830196509450508501356003811061102257600080fd5b9396929550929360400135925050565b6000806040838503121561104557600080fd5b82359150602083013561105781610f5f565b809150509250929050565b634e487b7160e01b600052602160045260246000fd5b6003811061108857611088611062565b9052565b6004811061108857611088611062565b60006101208b8352602081818501528b518083860152600092505b808310156110d6578c83018201518584016101400152918101916110b7565b6101409250600083828701015282601f19601f8301168601019350505050611101604083018a611078565b8760608301528660808301528560a083015261112060c083018661108c565b92151560e08201526101000152979650505050505050565b6000806040838503121561114b57600080fd5b8235915061115b60208401610f21565b90509250929050565b634e487b7160e01b600052601160045260246000fd5b8082018082111561118d5761118d611164565b92915050565b808202811582820484141761118d5761118d611164565b6000826111c757634e487b7160e01b600052601260045260246000fd5b500490565b6000602082840312156111de57600080fd5b8151610f5881610f5f565b6000600182016111fb576111fb611164565b5060010190565b634e487b7160e01b600052604160045260246000fd5b600181811c9082168061122c57607f821691505b60208210810361124c57634e487b7160e01b600052602260045260246000fd5b50919050565b601f82111561043f57600081815260208120601f850160051c810160208610156112795750805b601f850160051c820191505b8181101561129857828155600101611285565b505050505050565b815167ffffffffffffffff8111156112ba576112ba611202565b6112ce816112c88454611218565b84611252565b602080601f83116001811461130357600084156112eb5750858301515b600019600386901b1c1916600185901b178555611298565b600085815260208120601f198616915b8281101561133257888601518255948401946001909101908401611313565b50858210156113505787850151600019600388901b60f8161c191681555b5050505050600190811b01905550565b606081528360608201528385608083013760006080858301015260006080601f19601f87011683010190506113986020830185611078565b82604083015295945050505050565b8181038181111561118d5761118d61116456fea2646970667358221220aeab385a6a9a37d6b26b9a0e062f4de4b1b2853caf62387ae8c97ed4897b5eb164736f6c63430008140033",
  "linkReferences": {},
  "deployedLinkReferences": {}
}