{
  "_format": "hh-sol-artifact-1",
  "contractName": "TaskMarket",
  "sourceName": "contracts/TaskMarket.sol",
  "abi": [
    {
      "inputs": [
        {
          "internalType": "address",
          "name": "_token",
          "type": "address"
        },
        {
          "internalType": "address",
          "name": "_oracle",
          "type": "address"
        }
      ],
      "stateMutability": "nonpayable",
      "type": "constructor"
    },
    {
      "inputs": [
        {
          "internalType": "address",
          "name": "owner",
          "type": "address"
        }
      ],
      "name": "OwnableInvalidOwner",
      "type": "error"
    },
    {
      "inputs": [
        {
          "internalType": "address",
          "name": "account",
          "type": "address"
        }
      ],
      "name": "OwnableUnauthorizedAccount",
      "type": "error"
    },
    {
      "inputs": [],
      "name": "ReentrancyGuardReentrantCall",
      "type": "error"
    },
    {
      "anonymous": false,
      "inputs": [
        {
          "indexed": true,
          "internalType": "uint256",
          "name": "id",
          "type": "uint256"
        },
        {
          "indexed": true,
          "internalType": "address",
          "name": "user",
          "type": "address"
        },
        {
          "indexed": false,
          "internalType": "bool",
          "name": "supportYes",
          "type": "bool"
        },
        {
          "indexed": false,
          "internalType": "uint256",
          "name": "amount",
          "type": "uint256"
        }
      ],
      "name": "BetPlaced",
      "type": "event"
    },
    {
      "anonymous": false,
      "inputs": [
        {
          "indexed": true,
          "internalType": "address",
          "name": "previousOwner",
          "type": "address"
        },
        {
          "indexed": true,
          "internalType": "address",
          "name": "newOwner",
          "type": "address"
        }
      ],
      "name": "OwnershipTransferred",
      "type": "event"
    },
    {
      "anonymous": false,
      "inputs": [
        {
          "indexed": true,
          "internalType": "uint256",
          "name": "id",
          "type": "uint256"
        },
        {
          "indexed": true,
          "internalType": "address",
          "name": "user",
          "type": "address"
        },
        {
          "indexed": false,
          "internalType": "uint256",
          "name": "amount",
          "type": "uint256"
        }
      ],
      "name": "RewardClaimed",
      "type": "event"
    },
    {
      "anonymous": false,
      "inputs": [
        {
          "indexed": true,
          "internalType": "uint256",
          "name": "id",
          "type": "uint256"
        },
        {
          "indexed": false,
          "internalType": "string",
          "name": "description",
          "type": "string"
        },
        {
          "indexed": false,
          "internalType": "enum TaskMarket.TimeHorizon",
          "name": "horizon",
          "type": "uint8"
        },
        {
          "indexed": false,
          "internalType": "uint256",
          "name": "deadline",
          "type": "uint256"
        }
      ],
      "name": "TaskCreated",
      "type": "event"
    },
    {
      "anonymous": false,
      "inputs": [
        {
          "indexed": true,
          "internalType": "uint256",
          "name": "id",
          "type": "uint256"
        },
        {
          "indexed": false,
          "internalType": "bool",
          "name": "outcome",
          "type": "bool"
        },
        {
          "indexed": false,
          "internalType": "uint256",
          "name": "totalPool",
          "type": "uint256"
        }
      ],
      "name": "TaskResolved",
      "type": "event"
    },
    {
      "inputs": [
        {
          "internalType": "uint256",
          "name": "_taskId",
          "type": "uint256"
        },
        {
          "internalType": "bool",
          "name": "_supportYes",
          "type": "bool"
        },
        {
          "internalType": "uint256",
          "name": "_amount",
          "type": "uint256"
        }
      ],
      "name": "bet",
      "outputs": [],
      "stateMutability": "nonpayable",
      "type": "function"
    },
    {
      "inputs": [
        {
          "internalType": "uint256",
          "name": "_taskId",
          "type": "uint256"
        }
      ],
      "name": "cancelTask",
      "outputs": [],
      "stateMutability": "nonpayable",
      "type": "function"
    },
    {
      "inputs": [
        {
          "internalType": "uint256",
          "name": "_taskId",
          "type": "uint256"
        }
      ],
      "name": "claimReward",
      "outputs": [],
      "stateMutability": "nonpayable",
      "type": "function"
    },
    {
      "inputs": [
        {
          "internalType": "string",
          "name": "_description",
          "type": "string"
        },
        {
          "internalType": "enum TaskMarket.TimeHorizon",
          "name": "_horizon",
          "type": "uint8"
        },
        {
          "internalType": "uint256",
          "name": "_durationSeconds",
          "type": "uint256"
        }
      ],
      "name": "createTask",
      "outputs": [],
      "stateMutability": "nonpayable",
      "type": "function"
    },
    {
      "inputs": [
        {
          "internalType": "uint256",
          "name": "_taskId",
          "type": "uint256"
        }
      ],
      "name": "getOdds",
      "outputs": [
        {
          "internalType": "uint256",
          "name": "yesPercent",
          "type": "uint256"
        },
        {
          "internalType": "uint256",
          "name": "noPercent",
          "type": "uint256"
        }
      ],
      "stateMutability": "view",
      "type": "function"
    },
    {
      "inputs": [],
      "name": "nateToken",
      "outputs": [
        {
          "internalType": "contract IERC20",
          "name": "",
          "type": "address"
        }
      ],
      "stateMutability": "view",
      "type": "function"
    },
    {
      "inputs": [],
      "name": "oracle",
      "outputs": [
        {
          "internalType": "address",
          "name": "",
          "type": "address"
        }
      ],
      "stateMutability": "view",
      "type": "function"
    },
    {
      "inputs": [],
      "name": "owner",
      "outputs": [
        {
          "internalType": "address",
          "name": "",
          "type": "address"
        }
      ],
      "stateMutability": "view",
      "type": "function"
    },
    {
      "inputs": [
        {
          "internalType": "uint256",
          "name": "",
          "type": "uint256"
        },
        {
          "internalType": "address",
          "name": "",
          "type": "address"
        }
      ],
      "name": "positions",
      "outputs": [
        {
          "internalType": "uint256",
          "name": "yesAmount",
          "type": "uint256"
        },
        {
          "internalType": "uint256",
          "name": "noAmount",
          "type": "uint256"
        },
        {
          "internalType": "bool",
          "name": "claimed",
          "type": "bool"
        }
      ],
      "stateMutability": "view",
      "type": "function"
    },
    {
      "inputs": [],
      "name": "renounceOwnership",
      "outputs": [],
      "stateMutability": "nonpayable",
      "type": "function"
    },
    {
      "inputs": [
        {
          "internalType": "uint256",
          "name": "_taskId",
          "type": "uint256"
        },
        {
          "internalType": "bool",
          "name": "_outcome",
          "type": "bool"
        }
      ],
      "name": "resolveTask",
      "outputs": [],
      "stateMutability": "nonpayable",
      "type": "function"
    },
    {
      "inputs": [],
      "name": "taskCount",
      "outputs": [
        {
          "internalType": "uint256",
          "name": "",
          "type": "uint256"
        }
      ],
      "stateMutability": "view",
      "type": "function"
    },
    {
      "inputs": [
        {
          "internalType": "uint256",
          "name": "",
          "type": "uint256"
        }
      ],
      "name": "tasks",
      "outputs": [
        {
          "internalType": "uint256",
          "name": "id",
          "type": "uint256"
        },
        {
          "internalType": "string",
          "name": "description",
          "type": "string"
        },
        {
          "internalType": "enum TaskMarket.TimeHorizon",
          "name": "horizon",
          "type": "uint8"
        },
        {
          "internalType": "uint256",
          "name": "deadline",
          "type": "uint256"
        },
        {
          "internalType": "uint256",
          "name": "yesPool",
          "type": "uint256"
        },
        {
          "internalType": "uint256",
          "name": "noPool",
          "type": "uint256"
        },
        {
          "internalType": "enum TaskMarket.TaskStatus",
          "name": "status",
          "type": "uint8"
        },
        {
          "internalType": "bool",
          "name": "outcome",
          "type": "bool"
        }
      ],
      "stateMutability": "view",
      "type": "function"
    },
    {
      "inputs": [
        {
          "internalType": "address",
          "name": "newOwner",
          "type": "address"
        }
      ],
      "name": "transferOwnership",
      "outputs": [],
      "stateMutability": "nonpayable",
      "type": "function"
    }
  ],
  "bytecode": "0x608060405234801561001057600080fd5b50604051620013313803806200133183398101604081905261003191610102565b338061005757604051631e4fbdf760e01b81526000600482015260240160405180910390fd5b61006081610096565b5060018055600280546001600160a01b039384166001600160a01b03199182161790915560038054929093169116179055610135565b600080546001600160a01b038381166001600160a01b0319831681178455604051919092169283917f8be0079c531659141344cd1fd0a4f28419497f9722a3daafe3b4186f6b6457e09190a35050565b80516001600160a01b03811681146100fd57600080fd5b919050565b6000806040838503121561011557600080fd5b61011e836100e6565b915061012c602084016100e6565b90509250929050565b6111ec80620001456000396000f3fe608060405234801561001057600080fd5b50600436106100ea5760003560e01c80638d9776721161008c578063ae169a5011610066578063ae169a50146101e8578063b6cb58a5146101fb578063e684d71814610212578063f2fde38b1461026c57600080fd5b80638d9776721461019d5780638da5cb5b146101c45780638decaec0146101d557600080fd5b80635ca72d95116100c85780635ca72d951461015c578063715018a61461016f5780637dc0d1d0146101775780637eec20a81461018a57600080fd5b8063126c4166146100ef578063193d0b791461011c5780634d9598f014610147575b600080fd5b6101026100fd366004610d1a565b61027f565b604080519283526020830191909152015b60405180910390f35b60025461012f906001600160a01b031681565b6040516001600160a01b039091168152602001610113565b61015a610155366004610d33565b610301565b005b61015a61016a366004610dce565b6104d3565b61015a610610565b60035461012f906001600160a01b031681565b61015a610198366004610d1a565b610624565b6101b06101ab366004610d1a565b6106a2565b604051610113989796959493929190610e38565b6000546001600160a01b031661012f565b61015a6101e3366004610ed1565b610776565b61015a6101f6366004610d1a565b6109d6565b61020460045481565b604051908152602001610113565b61024f610220366004610f25565b600660209081526000928352604080842090915290825290208054600182015460029092015490919060ff1683565b604080519384526020840192909252151590820152606001610113565b61015a61027a366004610f51565b610c38565b6000818152600560208190526040822090810154600482015483929183916102a79190610f89565b9050806000036102be575060009485945092505050565b80826004015460646102d09190610fa2565b6102da9190610fb9565b935080826005015460646102ee9190610fa2565b6102f89190610fb9565b92505050915091565b610309610c73565b6004805490600061031983610fdb565b9190505550604051806101000160405280600454815260200185858080601f01602080910402602001604051908101604052809392919081815260200183838082843760009201919091525050509082525060200183600281111561038057610380610dfe565b815260200161038f8342610f89565b81526020016000815260200160008152602001600060038111156103b5576103b5610dfe565b81526000602091820181905260045481526005825260409020825181559082015160018201906103e59082611092565b5060408201518160020160006101000a81548160ff0219169083600281111561041057610410610dfe565b0217905550606082015181600301556080820151816004015560a0820151816005015560c08201518160060160006101000a81548160ff0219169083600381111561045d5761045d610dfe565b021790555060e09190910151600690910180549115156101000261ff00199092169190911790556004547fd965cab088be97fb9945c07302eb557dac97b7a824ca9bb0801439100845df998585856104b58642610f89565b6040516104c59493929190611152565b60405180910390a250505050565b6003546001600160a01b03163314806104f657506000546001600160a01b031633145b6105385760405162461bcd60e51b815260206004820152600e60248201526d139bdd08185d5d1a1bdc9a5e995960921b60448201526064015b60405180910390fd5b600082815260056020526040812090600682015460ff16600381111561056057610560610dfe565b1461059f5760405162461bcd60e51b815260206004820152600f60248201526e26b0b935b2ba103737ba1037b832b760891b604482015260640161052f565b60068101805460ff19841515610100021661ffff19909116176002179055600581015460048201546000916105d391610f89565b6040805185151581526020810183905291925085917ff5f8a9adf85545c5a324587d715b2e37e46ffb41a3f515a750c5a356c89ccc8291016104c5565b610618610c73565b6106226000610ca0565b565b61062c610c73565b600081815260056020526040812090600682015460ff16600381111561065457610654610dfe565b146106915760405162461bcd60e51b815260206004820152600d60248201526c10d85b9b9bdd0818d85b98d95b609a1b604482015260640161052f565b600601805460ff1916600317905550565b600560205260009081526040902080546001820180549192916106c49061100a565b80601f01602080910402602001604051908101604052809291908181526020018280546106f09061100a565b801561073d5780601f106107125761010080835404028352916020019161073d565b820191906000526020600020905b81548152906001019060200180831161072057829003601f168201915b5050506002840154600385015460048601546005870154600690970154959660ff93841696929550909350918181169161010090041688565b61077e610cf0565b600083815260056020526040812090600682015460ff1660038111156107a6576107a6610dfe565b146107e55760405162461bcd60e51b815260206004820152600f60248201526e26b0b935b2ba103737ba1037b832b760891b604482015260640161052f565b806003015442106108295760405162461bcd60e51b815260206004820152600e60248201526d10995d1d1a5b99c818db1bdcd95960921b604482015260640161052f565b6000821161086e5760405162461bcd60e51b81526020600482015260126024820152710416d6f756e74206d757374206265203e20360741b604482015260640161052f565b6002546040516323b872dd60e01b8152336004820152306024820152604481018490526001600160a01b03909116906323b872dd906064016020604051808303816000875af11580156108c5573d6000803e3d6000fd5b505050506040513d601f19601f820116820180604052508101906108e99190611199565b50821561093d57818160040160008282546109049190610f89565b9091555050600084815260066020908152604080832033845290915281208054849290610932908490610f89565b909155506109889050565b818160050160008282546109519190610f89565b9091555050600084815260066020908152604080832033845290915281206001018054849290610982908490610f89565b90915550505b60408051841515815260208101849052339186917f4af71b021e799c62c158bd54636ca8da2fa26115a21a2dc6efe486ec104fd15f910160405180910390a3506109d160018055565b505050565b6109de610cf0565b60008181526005602052604090206002600682015460ff166003811115610a0757610a07610dfe565b14610a475760405162461bcd60e51b815260206004820152601060248201526f139bdd081c995cdbdb1d9959081e595d60821b604482015260640161052f565b60008281526006602090815260408083203384529091529020600281015460ff1615610aa75760405162461bcd60e51b815260206004820152600f60248201526e105b1c9958591e4818db185a5b5959608a1b604482015260640161052f565b60008083600501548460040154610abe9190610f89565b6006850154909150610100900460ff1615610afe57825415610af95760048401548354610aec908390610fa2565b610af69190610fb9565b91505b610b2a565b600183015415610b2a578360050154818460010154610b1d9190610fa2565b610b279190610fb9565b91505b60008211610b6d5760405162461bcd60e51b815260206004820152601060248201526f4e6f7468696e6720746f20636c61696d60801b604482015260640161052f565b6002838101805460ff191660011790555460405163a9059cbb60e01b8152336004820152602481018490526001600160a01b039091169063a9059cbb906044016020604051808303816000875af1158015610bcc573d6000803e3d6000fd5b505050506040513d601f19601f82011682018060405250810190610bf09190611199565b50604051828152339086907f24b5efa61dd1cfc659205a97fb8ed868f3cb8c81922bab2b96423e5de1de2cb79060200160405180910390a350505050610c3560018055565b50565b610c40610c73565b6001600160a01b038116610c6a57604051631e4fbdf760e01b81526000600482015260240161052f565b610c3581610ca0565b6000546001600160a01b031633146106225760405163118cdaa760e01b815233600482015260240161052f565b600080546001600160a01b038381166001600160a01b0319831681178455604051919092169283917f8be0079c531659141344cd1fd0a4f28419497f9722a3daafe3b4186f6b6457e09190a35050565b600260015403610d1357604051633ee5aeb560e01b815260040160405180910390fd5b6002600155565b600060208284031215610d2c57600080fd5b5035919050565b60008060008060608587031215610d4957600080fd5b843567ffffffffffffffff80821115610d6157600080fd5b818701915087601f830112610d7557600080fd5b813581811115610d8457600080fd5b886020828501011115610d9657600080fd5b6020928301965094505085013560038110610db057600080fd5b9396929550929360400135925050565b8015158114610c3557600080fd5b60008060408385031215610de157600080fd5b823591506020830135610df381610dc0565b809150509250929050565b634e487b7160e01b600052602160045260246000fd5b60038110610e2457610e24610dfe565b9052565b60048110610e2457610e24610dfe565b60006101008a8352602081818501528a518083860152600092505b80831015610e72578b8301820151858401610120015291810191610e53565b6101209250600083828701015282601f19601f8301168601019350505050610e9d6040830189610e14565b8660608301528560808301528460a0830152610ebc60c0830185610e28565b82151560e08301529998505050505050505050565b600080600060608486031215610ee657600080fd5b833592506020840135610ef881610dc0565b929592945050506040919091013590565b80356001600160a01b0381168114610f2057600080fd5b919050565b60008060408385031215610f3857600080fd5b82359150610f4860208401610f09565b90509250929050565b600060208284031215610f6357600080fd5b610f6c82610f09565b9392505050565b634e487b7160e01b600052601160045260246000fd5b80820180821115610f9c57610f9c610f73565b92915050565b8082028115828204841417610f9c57610f9c610f73565b600082610fd657634e487b7160e01b600052601260045260246000fd5b500490565b600060018201610fed57610fed610f73565b5060010190565b634e487b7160e01b600052604160045260246000fd5b600181811c9082168061101e57607f821691505b60208210810361103e57634e487b7160e01b600052602260045260246000fd5b50919050565b601f8211156109d157600081815260208120601f850160051c8101602086101561106b5750805b601f850160051c820191505b8181101561108a57828155600101611077565b505050505050565b815167ffffffffffffffff8111156110ac576110ac610ff4565b6110c0816110ba845461100a565b84611044565b602080601f8311600181146110f557600084156110dd5750858301515b600019600386901b1c1916600185901b17855561108a565b600085815260208120601f198616915b8281101561112457888601518255948401946001909101908401611105565b50858210156111425787850151600019600388901b60f8161c191681555b5050505050600190811b01905550565b606081528360608201528385608083013760006080858301015260006080601f19601f870116830101905061118a6020830185610e14565b82604083015295945050505050565b6000602082840312156111ab57600080fd5b8151610f6c81610dc056fea26469706673582212202b77327ddc5d862dbe7f832d7b140679c93d3eed4c28707f9ef2edfbe1325eec64736f6c63430008140033",
  "linkReferences": {},
  "deployedLinkReferences": {}
}